:060000000A128A11E32F31
:100C000001300A128A119D260A128A110430F3005B
:100C10001C30F200F20B0A2EF30B0A2E0000080023
:100C20007E088A007F08820010260A128A1180003E
:100C3000840A04087D0603190034FF0A0319FE0A1A
:100C4000142E4C34323420342D34203443347A344E
:100C500065347334633420344B3475346234613416
:100C6000213400344C340034F4000130F202720AB2
:100C70000319080074088400831300080A128A11FB
:100C8000C7260A128A110130F3007308F407352EC3
:100C90007130831603138F008316031788018901AF
:100CA0008312031389018801880186018501831657
:100CB00003138901880187018601850108000A1252
:100CC0008A1131270A128A1128300A128A119D26A8
:100CD0000A128A110C300A128A119D260A128A11F0
:100CE00006300A128A119D260A128A1180300A12D1
:100CF0008A119D2608004C34343420342D3420349D
:100D000043347A3465347334633420344B3475346B
:100D100062346134213400344C34333420342D3483
:100D2000203443347A3465347334633420344B34A0
:100D300075346234613421340034F1007108F000FC
:100D400004300310F00CFF3E031DA12E70080F3974
:100D500020388312031388007108F0000430031058
:100D6000F00CFF3E031DAF2E70080F39880071088C
:100D70000F392038880071080F3988008530F0005D
:100D8000F00BC02E8530F000F00BC42E0800F100EF
:100D90007108F00004300310F00CFF3E031DCB2E51
:100DA00070080F3930388312031388007108F0007F
:100DB00004300310F00CFF3E031DD92E70080F39CC
:100DC0001038880071080F393038880071080F39E1
:100DD000103888008530F000F00BEC2E8530F000E4
:100DE000F00BF02E0800FB00F901F90AFA017B086C
:100DF0000319282F05307B020318282F75080319C3
:100E0000282F153075020318282F7B03031D0A2F86
:100E100075081E2F02307B06031D112F7508283E12
:100E20001E2F03307B06031D182F7508143E1E2F3E
:100E300004307B06031D212F75083C3EF80078081E
:100E4000FA007A087F3E0A128A119D260A128A1138
:100E50007708F8007808F20076080A128A1134261A
:100E60000800FF308312031388003430F100F130A2
:100E7000F000F00B392FF10B392F3E2F2330831266
:100E800003138800033088001A30F100F830F000B6
:100E9000F00B482FF10B482F00002330831203136F
:100EA0008800033088000330F1009730F000F00B29
:100EB000572FF10B572F5C2F233083120313880019
:100EC000033088000330F1009730F000F00B662FFC
:100ED000F10B662F6B2F2230831203138800023030
:100EE00088000330F1009730F000F00B752FF10B04
:100EF000752F7A2F080083120313D7016C08D900CD
:100F00006B08D800243084005A30A0000408A100E7
:100F10001130A2002008840083130008A300A00A57
:100F20002108840023088000A10AA20B8A2F3530F3
:100F30008400B130A0000408A1001130A2002008F4
:100F4000840083130008A300A00A2108840023085A
:100F50008000A10AA20B9F2F46308400A030A00081
:100F60000408A1001130A2002008840083130008A7
:100F7000A300A00A2108840023088000A10AA20B74
:100F8000B42F0A128A1148260A128A110A128A11EB
:100F90005F260A128A110A128A1100260A128A1181
:100FA0000A3083120313A0002008F5005830A10076
:100FB0002108F600F701F70A02300A128A11F32617
:100FC0000A128A11E22F8313C230FD000630FE00A0
:100FD0007B30FF00A03084000A128A1114260A1206
:100FE0008A116D30FD000630FE002130FF005A30BE
:100FF00084000A128A11142683010A128A117B2F97
:04400E00E4F8FFFFD4
:00000001FF
