:060000000A128A11F02F24
:100D08007E088A007F08820084260A128A118000E1
:100D1800840A04087D0603190034FF0A0319FE0A31
:100D2800882EF4000130F202720A031908007408D0
:100D38008400831300080A128A1106270A128A11EE
:100D48000130F3007308F407962E713083160313ED
:100D58008F00831603178801890183120313890101
:100D6800880188018601850183160313890188019A
:100D780087018601850108000A128A11A6270A122E
:100D88008A1128300A128A11DC260A128A110C30BC
:100D98000A128A11DC260A128A1106300A128A11EE
:100DA800DC260A128A1180300A128A11DC26080011
:100DB800F1007108F00004300310F00CFF3E031D31
:100DC800E02E70080F392038831203138800710849
:100DD800F00004300310F00CFF3E031DEE2E7008E7
:100DE8000F39880071080F392038880071080F39C9
:100DF80088008530F000F00BFF2E8530F000F00BF6
:100E0800032F0800F1007108F00004300310F00C03
:100E1800FF3E031D0A2F70080F3930388312031361
:100E280088007108F00004300310F00CFF3E031D29
:100E3800182F70080F391038880071080F393038AA
:100E4800880071080F39103888008530F000F00BE1
:100E58002B2F8530F000F00B2F2F08002030840056
:100E6800A030F5000408F6003D30F700750884004E
:100E780083130008F800F50A7608840078088000D3
:100E8800F60AF70B3A2F0A128A11A9260A128A11B2
:100E98000A128A11C0260A128A113C30F500750818
:100EA800F20020300A128A1195260A128A1110308F
:100EB800F7003930F6000D30F500F50B612FF60B11
:100EC800612FF70B612F682F682F3034313432349B
:100ED80033343434353436343734383439344134AF
:100EE800423443344434453446344734483449342E
:100EF8004A346F343134323433343434353436345C
:100F080037343834393461346234633464346534A2
:100F180066346734683469346A342C343134323492
:100F2800333434343534363437343834393471342E
:100F38007734653472347434793467346834693496
:100F48006A340034FF308312031388003430F10010
:100F5800F130F000F00BAE2FF10BAE2FB32F233092
:100F6800831203138800033088001A30F100F83028
:100F7800F000F00BBD2FF10BBD2F000023308312C2
:100F880003138800033088000330F1009730F00025
:100F9800F00BCC2FF10BCC2FD12F2330831203135E
:100FA8008800033088000330F1009730F000F00B20
:100FB800DB2FF10BDB2FE02F223083120313880085
:100FC800023088000330F1009730F000F00BEA2F70
:100FD800F10BEA2FEF2F08008313DD30FD000730F7
:100FE800FE006930FF00A03084000A128A118826AA
:080FF80083010A128A11322F55
:04400E00E4F8FFFFD4
:00000001FF
